:020000041000EA
:1000000000B5324B212058609868022188439860DF
:10001000D860186158612E4B002199600221596106
:100020000121F02299502B49196001219960352056
:1000300000F044F80222904214D00621196600F024
:1000400034F8196E01211966002018661A6600F04E
:100050002CF8196E196E196E052000F02FF8012189
:100060000842F9D1002199601B49196000215960AB
:100070001A491B48016001219960EB211966A021F2
:10008000196600F012F800219960164914480160C1
:100090000121996001BC002800D000471248134993
:1000A000086003C880F30888084703B5996A0420EC
:1000B0000142FBD001200142F8D103BD02B5186610
:1000C0001866FFF7F2FF186E186E02BD00000240BE
:1000D000000000180000070000035F00212200005C
:1000E000F4000018222000A00001001008ED00E03C
:1000F00000000000000000000000000074B24E7A12
:1001000000200420F7010010C3010010C5010010F9
:10011000C1010010C1010010C1010010C101001097
:10012000C1010010C1010010C1010010C701001081
:10013000C1010010C1010010C9010010CB01001065
:10014000CD010010CD010010CD010010CD01001037
:10015000CD010010CD010010CD010010CD01001027
:10016000CD010010CD010010CD010010CD01001017
:10017000CD010010CD010010CD010010CD01001007
:10018000CD010010CD010010CD010010CD010010F7
:10019000CD010010CD010010CD010010CD010010E7
:1001A000CD010010CD010010CD010010CD010010D7
:1001B000CD010010CD010010CD010010CD010010C7
:1001C00000BE00BE00BE00BE00BE00BEEFF3058054
:1001D000103800BEF2EB8871745D0010905D001065
:1001E0003802001090A31AE71E481F49086006C88D
:1001F00081F3088810471D480068002801D019487D
:10020000F3E70DA40ECC002902D000F012F8F9E7B4
:100210001749184A002000E001C19142FCD116495B
:100220008847164988471649884700BEFDE701C937
:1002300001C29A42FBD37047905D0010C0000020BD
:100240004009002010660010000004200000042077
:1002500010660010001004200010042000000000B0
:10026000704700000000000008ED00E0000000D032
:1002700040090020C00F002059470010E102001083
:1002800051470010F8B5C04606480749091A8B10B7
:10029000C90FC91810B5491003D0044B002B00D06A
:1002A000984710BD400900204009002000000000D0
:1002B000054B10B5002B03D00449054800E000BFF2
:1002C000FFF7E2FF10BDC046000000007C0E0020DA
:1002D0004C5700100021002010B502F03DF8C04638
:1002E000F0B5DE46454657464E46E0B5062095B089
:1002F000D02400F0B9FF40232406A362002201218C
:10030000062000F021FF01220421794B062000F095
:100310002FFF052000F0A8FF20230022A362012167
:10032000052000F011FF734C7349200004F072FCAB
:1003300003210E2000F0EEFE03210F2000F0EAFE64
:10034000002201210E2000F0FFFE002201210F20DB
:1003500000F0FAFE3C2340228021019400930EA875
:10036000002300F0DFF80EA800F0F6F80EA800F069
:10037000DBF900210EA800F01DFA0EA800F0D4F958
:1003800004F07AFC1F211C2000F0C4FE0022002192
:100390001C2000F0D9FE00211C2000F051FF574B1B
:1003A000574C0593574B0693574B0793574B08935E
:1003B000574B0993574B9B4604239846802322684A
:1003C0009B015340E022D2011340534AFA26802772
:1003D000136000237600514DB1467F001E1C43463A
:1003E0002B6023683B42FCD060680004000C02F0E4
:1003F00095FC011C301C02F073FC061C012001F06E
:10040000FBFC01235B429C46E1444B46002BE6D1BA
:10041000B2464349504602F066FC069B051C18682C
:1004200002F07CFC291C02F072FC079B071C186878
:1004300002F074FC291C02F050FC011C381C02F074
:1004400052FC059F4E463860281C02F089FC089D2E
:1004500002000B000AA8290004F030F9386802F005
:100460007FFC02000B000CA8290004F027F90EA85D
:10047000002100F09FF901253C230EA800930322E0
:100480000321029601953E3300F0D2F909990EA896
:100490000523092200F0BAFC59460EA805232F2295
:1004A00000F0B4FC0AA90EA80D23092200F0AEFC4E
:1004B0000CA90EA80D232F2200F0A8FC15230EA8CE
:1004C0000093152203210195663300F0EDFA142301
:1004D0000422292100930EA81533019500F0E4FAB7
:1004E0000EA800F021F9AF20800001F085FC65E73F
:1004F000D5020010D0030020801A0600C00B002097
:1005000000C004403C030020380300205057001076
:10051000585700105C57001000D0044000E0044021
:100520000000FA4370B56B460400D00805041B7C3C
:10053000484312020A432A431B061A43059B013013
:10054000636001212260206102F044FC40230370BB
:100550004033E060237570BD70B506000025AE2302
:1005600082B014360400C178437532004068AC3B59
:10057000009504F077FB2023E17863753200606812
:100580001E3B009504F06EFB0123E1786375320099
:1005900060680133009504F065FB4023E1786375E2
:1005A000320060683E3B009504F05CFBA123E178DB
:1005B0006375320060689F3B009504F053FBA823ED
:1005C000E178637532006068A63B009504F04AFB51
:1005D0003F23E1786375320060683D3B009504F08D
:1005E00041FBC823E178637532006068C63B009523
:1005F00004F038FBD323E178637532006068D13BA7
:10060000009504F02FFBE1783200606865750223E5
:10061000009504F027FBDA23E17863753200606807
:10062000D83B009504F01EFB1223E178637532007D
:100630006068103B009504F015FBD523E1786375E5
:1006400032006068D33B009504F00CFB8023E17816
:100650006375320060687E3B009504F003FBD9238C
:10066000E178637532006068D73B009504F0FAFAD0
:10067000F123E178637532006068EF3B009504F088
:10068000F1FADB23E178637532006068D93B0095AD
:1006900004F0E8FA3023E1786375320060682E3B9D
:1006A000009504F0DFFA8123E17863753200606819
:1006B0007F3B009504F0D6FAFF23E17863753200A2
:1006C0006068FD3B009504F0CDFAA423E1786375E2
:1006D00032006068A23B009504F0C4FAA623E178DA
:1006E000637532006068A43B009504F0BBFA8D236B
:1006F000E1786375320060688B3B009504F0B2FAD4
:100700001423E178637532006068123B009504F0B1
:10071000A9FAAF23E1786375606832000095AD3BBC
:1007200004F0A0FA02B070BD70B5060000252123C8
:10073000040082B01436C1784375320040681F3B14
:10074000009504F08FFAE178320060686575022345
:10075000009504F087FA2378E178013B6375320055
:1007600060680223009504F07DFA2223E178637526
:1007700032006068203B009504F074FAE1783200A2
:10078000606865750223009504F06CFAA378E1783F
:10079000013B6375320060680223009504F062FA41
:1007A0002369E268E1786068009504F05BFA02B0C2
:1007B00070BDC0464378F0B5002B1FD0072300263C
:1007C0009C460127047800291ED1002C16D06346D0
:1007D0003D0033409D400023ED43F2080132C468E0
:1007E0000133A15CDBB22940A154047808329C4259
:1007F000F5D801364378F6B2B342E6D8F0BD0136FB
:100800004378F6B2B342F9D9002CF7D063463D00E5
:1008100033409D400023F2080132C4680133A15CDB
:10082000DBB22943A154047808329C42F5D8E6E7AC
:10083000F0B5DE46574645464E469B46E0B587B086
:1008400010AB15001A7811AB1B780C00029312AB99
:100850001B7803935B465F19BD4200DB12E1CB08B6
:1008600001339C46531ECB18DBB2D9080131012657
:10087000884607210B408A463100994089465146F7
:10088000029B21408E40002B00D088E0F1438A4635
:100890004946C943894661462B0094460494059510
:1008A0000191019AD90055185246C6684144745DB9
:1008B000013314404A467455C568DBB26C5C144081
:1008C0006C549F42EDDC6246049C059D13199C42CA
:1008D0002ADA5E46EA0001329046013EAE19F6B2CF
:1008E000F600013607218A460639AB4622008946C2
:1008F000B4461D000197049454464F4643461440A5
:10090000A740D1085E18C36861449C5D0132BC43B6
:100910009C55C468D2B2635CBB436354AA42EBDB10
:100920002B005D46019F049C039A002A7FD06A1C1D
:10093000791ED2B28A46914279DD611C013BC9B26F
:100940008B4274DD02990235002900D076E0D20096
:1009500001329446A21C90460200E9B21800894672
:100960006346012694464246D4B20727611EC9B2A7
:10097000CA083940370065468F40ED689A1892B230
:10098000A95CB943A954220001349042EDDC4A46E7
:10099000083301329BB2CA4549DD9146E3E79246EE
:1009A00062462B00B446049405950192019AD90041
:1009B00055186246C6684144745D013314434A4683
:1009C0007455C568DBB26C5C14436C54BB42EDDB00
:1009D0005246049C059D13199C42A5DA5E46EA0026
:1009E00001329046013EAE19F6B2F60001360721FB
:1009F0008A460639AB4622008946B4461D00019757
:100A0000049451464F46434611408F40D4081E1966
:100A1000C368F9B29F5D64440F439F55C3680132B8
:100A20001E5DD2B231431955AA42EADB78E707B01E
:100A3000F0BCBB46B246A946A046F0BDE9B2D5001F
:100A4000A21C904601228946944601354246D4B202
:100A50000727611EC9B2CA08394067468F4039006E
:100A6000C668AA1892B2B75C3943B1542200013467
:100A70009342EDDC4A4608350132ADB2D145D6DAB3
:100A80009146E3E753188B4200DC4DE75E46EA00EF
:100A9000013E0132AE199046F6B2029AF6000136D6
:100AA000002A00D11EE7A2E7F0B54E46454657465C
:100AB000DE469946E0B589B012AB1E7813AB80468E
:100AC00018784B465F1AFB17FF185F40B31ADC1704
:100AD0001B196340019300234C461D00A1425D4158
:100AE0000124B2425B416D42A5435B420135A34301
:100AF00003951D00019C0135049507963D1B0028B8
:100B000042D00726644205944446B346C800D30841
:100B100006970294029EDCB2F6682418B0465E4640
:100B20001640B44601266746BE40B44646460134E8
:100B3000A4B2365DB246664657463E43B446464684
:100B400067463755494515D0059E6C00A64206DA22
:100B500001982D1A039884466144C9B2C800069EC4
:100B6000A642D7DDB446049B65449C466244D2B29B
:100B7000D308CFE7079CA242E6D109B0F0BCBB4640
:100B8000B246A946A046F0BD0724A346019CC80072
:100B9000644205944446D30806970294029EDCB250
:100BA000F6682418B0465E461640B44601266746ED
:100BB000BE40B246464657460134A4B2365DBE43F7
:100BC000B446464667463755894515D0059E6C00A4
:100BD000A64206DA01982D1A039884466144C9B2E8
:100BE000C800069EA642D9DDB446049B65449C46D7
:100BF0006244D2B2D308D1E7079C9442E6D1BCE765
:100C0000F0B557464546DE464E46E0B5002520394C
:100C1000CCB2AA4695B05E2C02D8C90089B28A46E9
:100C20000124D90801310591591CC9B28946C90866
:100C300001310691991CC9B28846C9080131079152
:100C4000D91CC9B28C461D1DC908EDB201315F1D0A
:100C50000291E9080131FFB29E1D0491F9080131AA
:100C6000F6B20191F10801310391D91DC9B28B4649
:100C7000C908013108910721099525000B409D40C5
:100C80004B460C9525000B409D4043460D95250095
:100C90000B409D4063460E9525000B409D40230070
:100CA0000F95099D0F400D40AB4009932300BB40B9
:100CB00027000E40B7405E4631408C4011000A9339
:100CC00008310C9BC9B28B46D9430D9B1091D94377
:100CD000119104210E9B8C46D9430F9B1291DB434B
:100CE0000821494DB94688460B945544139354E066
:100CF000109F3C403470069CC7681C193E193C5D2F
:100D000002270F4200D07AE0119F3C403470079CCC
:100D1000C7681C193E193C5D67460F426BD1129F94
:100D20003C403470029CC768E4183E193C5D47465D
:100D30000F425CD1139F3C403470049CC768E41898
:100D40003E193C5DCF064ED4099FBC433470019CD4
:100D5000C768E4183E193C5D8F0640D40A9FBC4327
:100D60003470039CC768E4183E193C5D4F0632D4CA
:100D70004F46BC433470089CC668A24649B25344EF
:100D8000F418F35C002916DB0B9901328B432370B6
:100D90005B46D2B20135934216D0059CC768D3009A
:100DA0001C193E193C5D012729780F42A0D00C9FE9
:100DB0003C43E4B29EE70B9901320B4323705B4640
:100DC000D2B201359342E8D115B0F0BCBB46B24671
:100DD000A946A046F0BD4F463C43E4B2CAE70A9F8D
:100DE0003C43E4B2BCE7099F3C43E4B2AEE70F9F4B
:100DF0003C43E4B2A0E70E9F3C43E4B291E70D9F71
:100E00003C43E4B282E7C04634580010F8B507000E
:100E10000E0014001D0014E0220008342B003800DE
:100E2000E4B2FFF7EDFE22003B78083201369A4229
:100E300002DB00240835EDB22B007A7808339342A8
:100E400002DA31780029E7D1F8BDC046D0231B066D
:100E50001B68AC4A9900F0B5DE468B4651585A42A1
:100E600053412F2257464E4645465B4293439A468E
:100E7000A54BE0B59C4683B000260191E2440029D1
:100E800038D0A24B99465246F30808339B009D5830
:100E90000123340098460836002D22D00F2120006F
:100EA000294001342D09002919D04B465A469A5839
:100EB0000300C240203BDB171340424613420CD1D3
:100EC00007220F000240920097403A00C308904F5B
:100ED0003C339B00DA51019B9847002D01D0B4426E
:100EE000DCD3202ECFD103B0F0BCBB46B246A9461E
:100EF000A046F0BD854E5F4600210F23B346CC08C7
:100F000022005046083292001258002A00D1D0E048
:100F1000180010408046100913421AD05D46ED5962
:100F2000A94620256D42AC468C446546ED17AC467B
:100F30004D46CD40A94665464E46354001263542D0
:100F400004D14646724D3C34A4006651002800D1BD
:100F5000AFE01C000440A446140A03421AD0481C07
:100F600080465846C059464681464D460800F540E1
:100F70001F38C01728400125284208D165462D0199
:100F8000AC46F0086646624D3C3080004651002C6D
:100F900000D18EE0180020408446100B234211D06F
:100FA0008C1CA0465C46E4594646A1464D460C00C2
:100FB000F5401E3CE4172C4001252C4200D182E074
:100FC000002876D01C000440A446140C034210D024
:100FD000C81C80465846C059464681464D460800C2
:100FE000F5401D38C01728400125284275D0002C37
:100FF0005FD0180020408046100D23420ED00C1DFB
:10100000A4466546414CE459EC40A1460C004D46CF
:101010001C3CE40F2C426AD000284AD01C0004403B
:10102000A446140E034218D0481D80464546374852
:10103000C059E840814608004D461B38C00F284281
:1010400009D165462D05AC4640466646C008304D80
:101050003C3080004651002C2BD0180020408446A4
:10106000120F23422AD029488C1D8146C059E040E6
:101070008046080045461A38C00F284206D1E008CD
:101080006446234D3C30240680004451002A10D091
:101090004846C059CC1DE0408446080065461938D2
:1010A000C00F284205D1E0083C30194C12078000DF
:1010B00002510831202900D021E714E7002AF8D096
:1010C00012488146E4E765462D02AC46F4086646C0
:1010D0000F4D3C34A400665172E765462D03AC46C3
:1010E000F00866460A4D3C30800046517FE7454691
:1010F0002D04A84664464646E408054D3C34A40049
:10110000665189E7340E002030410140A40E0020D2
:1011100000400140094A83009A1810B51468402223
:10112000544080322240064CC000A44663441A60FA
:10113000044B9C466044416010BDC04604C0014061
:1011400004D0014000400140074B8000C3181B68D9
:10115000C90092000A435A400C231340034A9446A4
:10116000604403607047C04604C0014004D00140A1
:10117000F8B545469846D0231B06DE461C689B46BC
:101180002B4B57469A46A3004E469946E0B5534628
:1011900016004A469B5807000D00002B34D04346EA
:1011A000002B3FD053464A4641469950D0231B0658
:1011B0001C6863425C412F220720634293431D4A0F
:1011C00038409446FA081100800085403C311A48A6
:1011D0006344890092000D509B18002E0ED080228F
:1011E00092019446634401210D201D6000F0C2F875
:1011F000F0BCBB46B246A946A046F8BDC02292014B
:10120000944663441D60F3E74346002BD1D0534618
:1012100041460D2099500022084900F0E7F85B464E
:101220001C68C6E70D20054900F0DAF9BAE7C046A8
:10123000340E002030410140004001404D0E0010AE
:101240008000002905D0064B9C4640236044036083
:101250007047044B9C46402360440360F8E7C04657
:1012600004E0014004F001400123D0228340120633
:1012700093629361094A83009A1811684022514091
:1012800080320A400649C0008C4663441A60054B10
:101290009C460523604443607047C04604C001403B
:1012A00004D00140004001400FB400B5084883B0AD
:1012B00003F090FB049B002B07D005A918000191B7
:1012C00003F012FA034803F085FB012003F024FA2F
:1012D000685700107857001070B5EFF3108C72B695
:1012E0000D4D2B68002BFCD0BFF35F8F0724CB087C
:1012F000C618C05C01230C40A3401C0004400342FC
:1013000007D118433070BFF35F8F2C608CF31088C7
:1013100070BD1000FFF7C8FF2C0100D0044A107800
:10132000431CDBB2172B00D9102313707047C04643
:10133000400300200021044B044ABFF35F8F02C327
:101340009342FAD17047C046000100D0800100D01E
:10135000054B064A1360064A136053609360D360DE
:1013600013615361936170478080808000E400E0E6
:1013700004E400E01F2318401E3B8340002905D0F1
:10138000C021044A4900535013607047802201492C
:101390008B50FAE700E100E070B50D00EFF3108626
:1013A00072B60F4A1368002BFCD0BFF35F8F0D4B52
:1013B00010309B6884001B590B4A934203D09D4216
:1013C00001D000F0EDFF074B9B681D51BFF35F8F0D
:1013D000BFF35F8F0022024B1A6086F3108870BD46
:1013E000240100D000ED00E0CD010010F0B557461B
:1013F0004E46DE464546E0B585B006000091170032
:10140000EFF3108B72B66A4A1368002BFCD0BFF35F
:101410005F8F0025674B5D579A46002D00DAA9E0E3
:101420006B00654C01935B199B009846A146C14433
:101430004B4652469B7910361370604BB6009B6842
:1014400099590B1B2F2B33D95D4B994200D0ACE03F
:10145000019B42469C465B4B6544AD0063535A4B2F
:101460000232A218043B9B1A1B05584A5B0D6519F2
:1014700013436B80564B0121AB80FF23AB71009B64
:10148000EF71AB604B460B4319004C4B9B68995175
:10149000BFF35F8FBFF35F8F0022454B1A608BF362
:1014A000108805B0F0BCBB46B246A946A046F0BDC8
:1014B00001200A008243D3798C46BB4231D845468D
:1014C000130044491B1B5B415943090D3D4B6353BA
:1014D0003D4B02356519043B5B1B1B053B4D5B0D0A
:1014E0002B43AA464D466B800425AC465546E04446
:1014F000131F44441B1B1B055B0D1D434B46997179
:1015000000999D8099604946DF71334B0143136018
:10151000BBE75800C01880002018C179B9422FD904
:1015200002000623D356002BF3DA02932B4B6146BD
:101530000393131D9A4604235B429C46E1445046A4
:101540004B461B1A1B055B0D9C46204B957198461C
:101550006346404603439380019B5A199200039BC4
:10156000A418A380029B1C4AA371009B2260E77110
:10157000A3608AE700F014FF002553465D574FE74C
:10158000908802934005131D9A46031561469C46B8
:101590004046D444634604302018181AE02300055E
:1015A000400D1B0218430390C5E700F0F9FE4FE71A
:1015B000240100D0BD0F00204403002000ED00E016
:1015C000CD01001000A1FFFF7403002000E0FFFF29
:1015D00001BDFFFFAAAA00000148804701BD00002D
:1015E000F0B5DE4657464E464546E0B50C0083B0A2
:1015F000EFF3108872B6634A1368002BFCD0BFF378
:101600005F8F614B61499A68030010339F00D55981
:1016100001938D4243D0A54254D05D4EAA1B2F2A80
:101620003DD85C4B9B461B68994601231A009C469B
:1016300082404B4613401F22994663460240934026
:101640009A4680225B4650469850BFF35F8FEFF377
:1016500005839B46002B37D0019B5B4501D000F0F2
:101660009FFE01232A009A439068844208D176E0C5
:101670004B005B189B00F3189868844236D01A0020
:10168000062151560029F3DA844254D04B46002BF0
:1016900027D0C02251463F4B5200995019603A4B17
:1016A0009B68DD51BFF35F8FBFF35F8F0022354B27
:1016B0001A6088F3108803B0F0BCBB46B246A94656
:1016C000A046F0BD0D00EAE72A0063469A43906801
:1016D0008442D5D106201056130000280ADA0D00E6
:1016E00031E0802351462B4AD150D8E706201856C6
:1016F000002821DB42001118890074188B46A1686C
:101700009960E179D971062161569971002924DB2C
:10171000A488F11A640524155C44091909051E4CB6
:10172000490D2143998013181C4A9B001178F31826
:1017300099711070AAE713005946002914D1FF319E
:1017400091711749918015490A789A71154A9B1B26
:101750005B415A43120D0A7098E71149E2E70620EF
:10176000105613000028C5DA0F4A1049D21A083A59
:101770005002400D014399800D4952080A43DA8016
:1017800084E7C046240100D000ED00E0CD01001048
:101790004403002000E100E000E0FFFFBD0F002057
:1017A00001BDFFFFAAAA00007E03002000F0FFFF9A
:1017B00000F8FFFF70B501240443EFF30581EFF358
:1017C000108C72B6214A1368002BFCD0BFF35F8FD8
:1017D0001F4B05001F4AED1A6D416A43120D1E4D45
:1017E0008900AE6852B27658A6421CD006215956DE
:1017F00091421CD012215956914222D01E21595695
:10180000914220D02A2159560324914210D0134BE3
:1018100019781A708171BFF35F8F00220B4B1A6029
:101820008CF3108870BDAB680D4C5C50EFE7002462
:101830006100091989005B18FF2199710949998094
:10184000E5E70124F4E70224F2E7C046240100D0D2
:1018500044030020AAAA000000ED00E0BD0F002014
:10186000CD01001001BDFFFF024B9C466144890081
:10187000016070474000003470B5114C114DAC420E
:101880000FD2FF262368002B0CD0FFF747FD010085
:101890002000FFF7E9FFA680BFF35F8F0834AC425A
:1018A000F0D370BDFFF73AFD01002000FFF7DCFF29
:1018B0002671BFF35F8F0834AC42E3D3F1E7C04633
:1018C00038090020400900200A4B1968EFF3108006
:1018D00072B60A68002AFCD0BFF35F8F1B68BFF3A3
:1018E0005F8F00221A6080F3108840BF0020002123
:1018F0007047C046B80F0020F0B5DE4657464E464A
:101900004546E0B587B0EFF30583032201251A4071
:10191000954091008846A946B34B03925C58B34B5F
:101920001D60B34B04934B46B24843630823E55E06
:10193000002D37DAA3881BB2002B00DBADE0A379C2
:10194000002B00D0EEE00823E05E002820DB4300FF
:1019500062691B18DB00D3189E68DD68731C00D118
:1019600011E1A44801004144826A0B69B71A9B1A2D
:101970009F4215D30123026A039883401A420FD075
:101980009C4800F047FB8D4202DCCCD18642CAD98C
:1019900040BF07B0F0BCBB46B246A946A046F0BD6A
:1019A0000E61EDE762696B0092465B19DB009A44B9
:1019B00053469E68DF6800F02DFB8F42BADC00D1F1
:1019C00003E1002F00DAE8E05246534652691B69F2
:1019D0009346049A934200D1D9E052460821605EB2
:1019E000528800045946104398470090019100998D
:1019F000019A0B001000134300D1CEE013000A003F
:101A0000B61A9F41002806DB7A4800F003FB009ECF
:101A1000019F36184F4153469E60DF6000229A5E58
:101A2000002A00DA86E7530099186069C900411856
:101A300002938B68C9689B46B94200DD7AE702D100
:101A4000B34200D976E708239C46A4440595654631
:101A50002281A446029B2C0006E053009918C9007D
:101A600041188D68C968AB469B18DB00C318B942A2
:101A700006DC00D1B3E01C000023E25E002AECDAB1
:101A8000230064469C4653461A806346059D1D808C
:101A9000A3881BB2002B00DA51E72269EFF3108113
:101AA00072B61368002BFCD0BFF35F8F0123A788A9
:101AB0005B42A3803FB22369BFF35F8F00221A60AD
:101AC00081F31088002F00DA39E723000833220061
:101AD0009A4666697B00DB19DB00F318996850466B
:101AE0008C460824115FDD68002910DB029306E0B4
:101AF000AB4244D00023E15E2000002906DB4C000D
:101B00006418E4003419E368AB42F1DD029B0780FE
:101B100000201F5E1980002FDCDA1400A379002B4F
:101B200000D110E70023A37126000823E15E0836E8
:101B30004B1C00D12CE70800A246656902E03E007C
:101B40004B1C1AD04B005B18DB00EF180A008C46C8
:101B5000E95E7B881BB2002BF1DA01235B42DC17C4
:101B6000BB60FC60824205D0534631801B893B80BC
:101B700053461A8160464B1CE4D15446E5E6A368FF
:101B80006345B7D9C2E76B1C00D0EAE6F8E65B46CE
:101B900058461B69984700281BD153461B88226969
:101BA0002381EFF3108372B611680029FCD0BFF3D4
:101BB0005F8F514662880A8022696580BFF35F8F1C
:101BC0000021116083F31088B4E6864200D8F8E65D
:101BD000B0E65B461A685B680092019307E7B3457D
:101BE00000D848E74CE7C046940E00203C70054002
:101BF000F91800100040054070B52E4C2569002DE5
:101C000004D00A212C48FFF72FFE70BD2B4E032174
:101C1000300000F0F5F9E660FFF780FB284B032267
:101C20009C46D02322701B061B6801216370254B44
:101C30006044A3600F2380002061022063806369F9
:101C40004942A18019800231198647311D835852BB
:101C500018315A5275325C39995218320131995201
:101C6000183201319952183201319952083518321F
:101C70009D5202311832995218320131995218325C
:101C80000131995218320131995218320131995269
:101C90001832013199520C4B0C49DC60013035622D
:101CA000FFF77AFB01210320FFF764FB084B1D605F
:101CB000A7E7C0468C030020B80F00200040054075
:101CC00040000034FFFF1000940E0020F9180010AF
:101CD0003860054070B501000469EFF3108C72B6EE
:101CE00020680028FCD0BFF35F8F02200D5E4C6996
:101CF00068004019C00024180869002D36DB2688CA
:101D00004E80BFF35F8F002606608CF31088E3607F
:101D100063880498013320615B0405985B0CA26022
:101D200060611A1C002B1FD093B2280462801843F4
:101D30000A69EFF3108C72B61368002BFCD0BFF366
:101D40005F8F8B8823808D800B69BFF35F8F0022AC
:101D50001A608CF310880B7801329A40CB680849DE
:101D60008C4663441A6070BD0122DDE7BFF35F8FCC
:101D7000002303608CF3108801204042F3E7C04643
:101D80003C20000010B543890A1493421ADD530029
:101D90009B184269DB00D3180469EFF3108C72B60C
:101DA0002268002AFCD0BFF35F8F5A88090494B2DE
:101DB000090C8A4208D00369BFF35F8F00221A60C2
:101DC0008CF31088002010BD8022120214435C8026
:101DD000012302698371BFF35F8F002111608CF3CF
:101DE0001088044902788C469340C26801206244FE
:101DF0001360E8E73C200000F0B5C64600B582B0AD
:101E0000040000F00FF9FA2206000F002000002362
:101E10000021920000F044FF8019794104000D1E5A
:101E200002DA01242E4D644206267642F71736194F
:101E30006F41AF4214D811D000F0F4F832003B00EB
:101E4000121A8B41002B15DC002B46D020002900F4
:101E500000F0F2F802B080BCB846F0BDA642EBD963
:101E60000026002700F0DEF832003B00121A8B41FA
:101E7000002BE9DD00F0D6F832003B00121A8B414E
:101E8000002B0ADB00230193164B32000093164807
:101E90003B00FFF71FFF0130D8D000233900B046C8
:101EA0009C46124A1248536A994204D8966A46459B
:101EB000CCD29942CAD10668EFF3108772B6336864
:101EC000002BFCD0BFF35F8F0368BFF35F8F6646C4
:101ED0001E6087F3108820BFE5E7002AB6D0C9E767
:101EE000FFFFFF7FC91800108C0300200040054051
:101EF000B80F0020F0B557464E46DE464546E0B5E1
:101F000006000F0085B0EFF3058399468B46002B42
:101F100012D0384900204B6ABB4206D38A6ADB1BC9
:101F2000591E8B41B2424041184305B0F0BCBB463C
:101F3000B246A946A046F0BD2F4B9A46DB689846AC
:101F400053461B784046039300F064F84246039BD7
:101F5000040004339B009B580D001B1A390030000D
:101F6000001BA941894510DC0DD020BF214A00206B
:101F7000536A5B45D9D3926ADB1B591E8B41B2422F
:101F800040411843D1E78342EFD900F04BF83200CB
:101F90003B00121A8B41002B1ADB00230193174BD5
:101FA0003200009350463B00FFF794FE011E0FDD08
:101FB000104B5A6A5A451BD39B6AB34216D35046FC
:101FC000FFF7E0FE0B4A0020536A5B45ADD3D2E732
:101FD000084A0020536A5B45A7D30020926ADB1BA6
:101FE000B24240415A1E934118439EE75A45E6D1FA
:101FF00020BFE4E7004005408C030020C918001012
:1020000010B5024A0248FFF767F910BD7C5700106F
:102010003C0E00200300416A0A00986A596A8A420D
:10202000FAD17047034B596A0A00986A596A91427B
:10203000FAD1704700400540064A536A9942FCD8DD
:1020400007D1044B02E05A6A914202D19A6A904247
:10205000F9D8704700400540F8B5DE464E46574671
:102060004546E0B58B4605000A991800160000F0B9
:102070009DFA0A9B6C001F02324B64199C46A40017
:102080006444636881469F4200D967602B1FDBB2BE
:102090009846012B30D9C02380229B01E3181201FE
:1020A0001A60294BAD0059599A4600291BD173017A
:1020B000E026226853401E40802342465B01E3181D
:1020C0001E60012A30D9802380229B01E31812016F
:1020D0001A6053464A4667605A51F0BCBB46B24646
:1020E000A946A046F8BD586900F060FA01304300E7
:1020F0001B18033BFDD2DAE75B46012BCBD1C02393
:1021000003229B01E3181A60023AA3681A42FCD02A
:102110007301E0262268AD0053401E4080230A4A26
:102120005B019246E3181E605A4621685140032223
:102130000A401A6001225B469A40A3681A42FCD00A
:10214000C1E7C04600800040400E0020F0B5464682
:102150004F46D646C0B51F00344B44009C46241859
:10216000A4006444636888461600FF2B02D88023CD
:102170005B006360031FDBB29A46012B30D9C0239A
:1021800080229B01E31812011A60294B85005959DE
:10219000994600291BD17301E026226853401E4056
:1021A000802352465B01E3181E60012A30D9802348
:1021B00080229B01E31812011A6080235B00636098
:1021C0004B465F51E0BCBA46B146A846F0BD5869DF
:1021D00000F0ECF9013043001B18033BFDD2DAE7B5
:1021E0004346012BCBD1C02303229B01E3181A6085
:1021F000023AA3681A42FCD07301E02622688500E7
:1022000053401E4080230A4A5B019146E3181E603A
:1022100042462168514003220A401A600123424687
:102220009340A2681342FCD0C1E7C0460080004042
:10223000400E0020014B8000C0587047400E002027
:10224000F8B5040021481E0017000D0000F0AEF99B
:102250000100380000F0AAF9069B36041B031E4358
:102260002368002B20DB1A4B1A49E3185A1E9341AE
:102270008022920194465B421B0B174A1B03634466
:102280001360164A13601F000A689743FBD1144B72
:102290002560E2182123A06013602368002BFCDA7C
:1022A0000823E6601360F8BD3F2322681340AB4269
:1022B000D9D1A3681B051B0D8342D4D1EE22E3685C
:1022C000D2021340B342CED1EDE7C046001BB700A7
:1022D0000040FDBF08C0004000E0004000F00040AA
:1022E000043000008023024A9B000B43D3627047F6
:1022F00000800540002310B50100988A1B8B984789
:1023000010BDC046162310B50100188802331B8883
:10231000984710BDF8B54746CE4680B50F1E18D079
:1023200014239946043304000025012698464B46A1
:102330001888434621681B88984701C4431E98416A
:1023400001350640AF42F2D13000C0BCB946B046BC
:10235000F8BD0126F8E7C046002370B504000D0063
:10236000988A03491B8B984729000300200098474F
:1023700055420000AA23064A1B0113608D235B000F
:10238000D3600449044B19605368002BFCDA704792
:102390000040024000B0FA00006002407047C046B2
:1023A00010B50148FEF780FFA057001070B5074D2B
:1023B000074EB54209D20024013E761BB60808CD6F
:1023C000984723000134B342F9D170BD085700107B
:1023D00044570010054B064A06491A60064A074B47
:1023E0001A6010000B689843FBD1704700E0004072
:1023F000BFCDFBFE08C00040FE7F3C0000F0004067
:10240000044BDB6C002B03D18022034BD2021A60F9
:102410007047C046000011504C201150044A054B33
:102420001A60054A1368DB018033FBD17047C04650
:10243000FFFFFF0100F0004008C000404022034BB6
:102440009A675A671A67DA667047C04600F001401B
:1024500010B5FEF76FFF10BD70B5044D044CA968B0
:10246000C022200000F0D8FCAC6070BD00ED00E0A0
:1024700000000020002310B5294C82B0A367FFF7AD
:1024800079FF0122274B1A60636C012BFCD10322D8
:10249000254B1A60224A936B012BFCD10133009328
:1024A0000121224A22480433FFF7CAFE05230121F5
:1024B0000093204A2048FFF7C3FE00220221042097
:1024C0001E4BFFF743FE0022012105201C4BFFF7A6
:1024D0003DFE0022002107201A4BFFF737FE0022A5
:1024E00000210820174BFFF731FE8023DB0000930B
:1024F000002200210920134BFFF7AEFD0022104BF4
:1025000000210620FFF722FE0420FFF793FE0E496C
:1025100000F04CF801000020FFF7E4FE02B010BD0F
:10252000008000403CB0004030B00040002F6859AF
:1025300000800240008C864700C00240001BB700AC
:1025400040597307006CDC0240420F00014804212F
:10255000014B1847B003002015230010124A936F57
:102560009B0815D29066D166002905D0FFE7FFE7EA
:10257000FFE7516F106F704704B580210906C2173D
:102580005140002800D0C84303F0AEF8002104BD3C
:10259000F0B5146E556E576F166FFFF7E3FF1466B4
:1025A000556657671667F0BD000000D0114A936F5B
:1025B0009B0813D210665166002905D0FFE7FFE79C
:1025C000FFE7516F106F704704B5002801D000205D
:1025D000C04303F089F8002104BDC046F0B5146E75
:1025E000556E576F166FFFF7E5FF14665566576710
:1025F0001667F0BD000000D094464A4A926F9208D8
:10260000624601D228E0C046F0B5464E346E756E83
:10261000776F366F00F020F89446424A146655668C
:10262000576716676246F0BD94463E4A926F92081D
:10263000624601D254E0C046F0B53A4E346E756E33
:10264000776F366F00F04CF89446364A146655663C
:10265000576716676246F0BD002B24DB11D00029B6
:102660003EDA00B5C943404200D1013100F038F8EC
:10267000C943404200D10131DB43524200D1013312
:1026800000BD002AEBD1002801D1002905D000208F
:10269000C90FC90701D1C043410800B503F01CF8B8
:1026A0000022002300BD00B500290ADBDB435242B3
:1026B00000D1013300F014F8C943404200D1013188
:1026C00000BDC943404200D10131DB43524200D139
:1026D000013300F005F8DB43524200D1013300BD65
:1026E000002923D1002B18D1002A0CD0BC460D4F55
:1026F00038667A6600210023FFE7FFE7FFE77A6F7D
:10270000386F67467047002801D00748010000B5C0
:1027100002F0E2FF0022002300BD02000B000020B7
:1027200000217047000000D0FFFFFFFF002B00D00A
:10273000BFE0130C28D1002AE7D080B4114F3966CE
:102740007A66FFE7FFE730B4040C7B6F396F1B0438
:1027500023433B667A66FFE7FFE7FFE7C04684B2A4
:102760007B6F3D6F1B0423433B667A66FFE7FFE701
:10277000C04600232C042D0C7A6F386F0019694174
:10278000B0BC7047000000D0F0B594460025140E90
:1027900001D112020835140F01D112010435940F32
:1027A00001D192000235D40F01D152000135D40B72
:1027B0000134254F7C66254C3C660E0C93B2FFE736
:1027C000FFE7FFE73C6F6643360C7703BE46734373
:1027D000DF0B5B04C01AB941130C7343DB18C91A31
:1027E000CE086643360CB64493B273431F0F1B01E9
:1027F000C01AB941130C73431F0B1B05C01AB94112
:10280000860D8F023E436643360C092D24DB520AA7
:102810007243801A7703460A6643360C16235B1B05
:10282000DE40DF40BF1964466643821B70460435B4
:1028300006330100D940A840C01900D30131A2429B
:1028400006D20023F0BD0000000000D0FFFFFFFF14
:10285000121B0130F3D3F1E709277F1BFE406446CA
:10286000A2B27243801A00D20139220C7243130CB7
:102870001204821A99410B00704604351337010087
:10288000F940A840801900D30131002B02D1A242A7
:102890000AD2F0BD013000D30131121BFAD2013B44
:1028A000F8D1A24200D2F0BD013000D30131121B99
:1028B000F7E7F0B51C0C00D080E00CB400251C0A32
:1028C00004D11B02160E3343120208351C0B04D12F
:1028D0001B01160F3343120104359C0B04D19B00DE
:1028E000960F334392000235DC0B02D192185B4104
:1028F00001351C00971864410134464F7C66464CF4
:102900003C660E0CFFE7FFE7FFE7C0463C6F6643FF
:10291000360C7703BE4697B27743C01B00D201390D
:10292000C01B00D201399FB27743C91BC91B170CCA
:1029300077437E04FF0B801BB941CE086643360CFB
:102940000C2D33DBB644120B1F053A431B0B97B219
:102950007743C01B00D201399FB27743C91B170CC4
:1029600077433E043F0C801BB941860D8F023E43E6
:10297000664329277F1BFE400C3D7746AF40BF19B9
:1029800030BCA2B2ABB272437343801A9941220C9D
:102990007243130C1204801A994102000B00013794
:1029A000001BA941F9D2781E0021F0BD0C277F1B26
:1029B000FE4077467F0BAF40FF19E0E700245D1C27
:1029C00007D0144F7D663966FFE7FFE7FFE7FFE7B3
:1029D0003C6F95B29EB265436643401BB141150CF6
:1029E0001E0C6543664336042F0C3E432D04401BEA
:1029F000B141994204D202000B0020000021F0BD39
:102A000001D19042F7D3801A994101349942F2D30F
:102A1000F6E70000000000D0FFFFFFFF4840414004
:102A2000484018B4134B5B68019308BD18B4114BB0
:102A30001B68019308BD94460F4A926F920805D215
:102A4000624618B40B4BDB68019308BD0A4AF0B527
:102A5000146E556E576F166F6246FFF7F2FF064A07
:102A60001466556657671667F0BD18B4014B9B682E
:102A7000019308BDC00A0020000000D0FFB55040FF
:102A80004240504059404B40594000E0FFB5154F7F
:102A90004C00640D03D0BC4204D10C0314D80020B8
:102AA000090D09055C00640D03D0BC4204D11C0370
:102AB0000AD800221B0D1B0501264B4009D44B40B0
:102AC00003D58B4200D18242FFBD9942FCD1904296
:102AD000FFBD0B43DB1803431343F5D0C94349182B
:102AE000FFBD0000FF07000000B5FFF7CFFF8041EA
:102AF00000BDC04600B5FFF7C9FF01D9002000BDE9
:102B0000012000BD00B5FFF7B9FF01D9002000BDCD
:102B1000012000BD00B5FFF7B1FF804100BD0120DD
:102B200040054A00121804D85A00121801D8002093
:102B300070470120704700000021002805D1704730
:102B4000C1174840401AFAD0C90713B5064B1B6895
:102B500098470CBC441CA2401005120B0349091BEA
:102B600009051943114310BDB40E00201F040000D5
:102B700010B54C00620D8023D218DB00D21A5B0521
:102B80007E2A10DD9E3A13DACC170903490819434F
:102B90005242D140640001341532202A05DAD04077
:102BA0000843604310BD002010BD0846604310BDBF
:102BB000C80FC018013810BD18B4024B5B6A0193EE
:102BC00008BD0000C00A002010B50148FEF76CFBEC
:102BD000AC570010132370B51D78012D19D014DDEA
:102BE0001D48FFF78FFB06001C48FFF78BFB1C4CB2
:102BF00080223100200000F00FF9022D06D0194884
:102C0000FFF778FB184B186070BD154C174BA36489
:102C1000F5E7174B124C23606360A360E360236108
:102C20006361A361E36123626362A362E36223637E
:102C30006363A363E36323646364A364E36423655E
:102C40006365A365E36523666366A366E36623673E
:102C50006367A367E367D9E7534400005346000066
:102C6000C00A00204C330000B40E0020752C001068
:102C7000C92B001007B5604601880A0A0230DF2A16
:102C8000FAD1C9B2820804D30288408800041043F4
:102C900000E00068014A5050039007BDC00A0020C0
:102CA00051434343C9188C46110C83B24B4310B4B3
:102CB000040C614392B280B2504362431C041B0C6B
:102CC000001910BC59411304120CC0185141614441
:102CD000704700004840414048400E4B5B68184731
:102CE0000C4B1B6818470C4A936F9B0802D2094B88
:102CF000DB681847F0B5146E556E576F166FFFF707
:102D0000F6FF054A1466556657671667F0BD014B16
:102D10009B681847B80E0020000000D0C10FC907FB
:102D200000D54042002817D0F44603B40B4B1B6873
:102D3000984706BC81409E384042803107D20B063E
:102D400007D04900490AC0051043084360470130D5
:102D5000F8E7490A8902F5E770470000B40E002041
:102D6000014BDB6F18470000B80E002010B501487A
:102D7000FEF79AFA20580010132310B510481C785B
:102D8000FFF7C0FA0100012C0AD003DD80220D48B4
:102D900000F042F80C48FFF7ADFA0C4B186010BD7C
:102DA000084C5422200000F037F8220008498032F5
:102DB0002368002B00D1216004349442F8D1E9E764
:102DC00053460000B80E00204C330000B40E002023
:102DD0006D2D001070B505000C0001F069FF6C430B
:102DE000002804D0034B04199C4200D870BD02484F
:102DF000FEF75AFA00000420C457001001480421CD
:102E0000014B1847C003002015230010014B1B681D
:102E100018470000C0030020014B5B681847000002
:102E2000C00300209A4200D2885470477047C046C1
:102E3000F8B55746DE464E464546E0B599460A9BEC
:102E400007009A460D9B884693460B9C9B073BD1F7
:102E50000C9B9C423DD21E1B0B9415000C005E4443
:102E60002A004B46013521002020B847B542F7D152
:102E7000A0460B9C002C20D0454636195346321BE9
:102E8000013C185D29004B46B847002CF6D12B00B9
:102E9000350098460D9B9B070FD55B46EC1A0C9BA3
:102EA000A3420AD9464698462A004B4631002020C4
:102EB0000134B84701354445F6D32800F0BCBB4681
:102EC000B246A946A046F8BD16001500002CD3D185
:102ED000E0E716001500002CCED1EEE7F0B5454630
:102EE000DE4657464E46E0B585B09C4610AB1B7893
:102EF000149F934698460F9C129E139DBB074CD47B
:102F0000002D42D1B44248D201233B4099460E9B4A
:102F1000013B9A46302304E0524601341355A64241
:102F200001D9202CF8D14B46002B00D183E00E9B19
:102F3000013B99463023A54205D82EE04A4601348C
:102F40001355AC4229D0202CF8D1FB060CD57B05BB
:102F500054D4A64263D0A54261D0119B102B50D00F
:102F6000022B57D0202C32D1202301930E9B5A469E
:102F70000093039763460295FFF75AFF05B0F0BC34
:102F8000BB46B246A946A046F0BD01233B40994648
:102F900001233B422AD1B442B9D3FB061CD57B05A1
:102FA000DBD4002CD5D1119B102B5BD0119B022BB5
:102FB0006BD0302301240E9A13704346002B10D19E
:102FC0007B073ED52B260E9A631C1655CDE72300B2
:102FD000013430260E9AD654202CC5D04346002BFF
:102FE000EED02D260E9A631C1655BEE74346002BE5
:102FF0002FD0013DB44200D289E798E7119B102BF6
:10300000B2D1BB0637D5202CAED058230E9A13551B
:103010000134A7E7202CA7D02300013407E0631E6A
:10302000012CC0D0119A102A31D0022AD1D16226A7
:103030000E9AD65496E7FB06CED57B0500D488E7DA
:103040008BE723003E0790D520260E9A01331655B4
:103050008BE70C233B405A1E9341ED1AB44200D239
:1030600055E764E7BB060ED478230E9A022413704A
:1030700030235370A1E7202C00D175E778230E9AF6
:10308000135501346EE75823EFE76033EDE70E9AEE
:10309000A61E91464E44BA0602D55822327098E7D1
:1030A0007822327095E7C04610B5002800D110BDD7
:1030B00001F046FCFBE7C046F0B55746DE464E46FB
:1030C0004546E0B595B083460F00924698461E9A55
:1030D0001F9B10001900209EFFF721FD002800D043
:1030E000EAE11E981F990122C54B5242FFF7FCFCF2
:1030F000002800D014E11E981F990122C14B5242B2
:10310000FFF708FD002800D0E9E01E981F99002273
:10311000BD4BFFF7FFFC002800D0C8E01E981F99A8
:103120000022BA4BFFF7E0FC002800D0BFE01E9859
:103130001F9900220023FFF7D7FC002800D0E4E00D
:1031400000230B93229B5B0500D40626002430232A
:1031500007E0172106AA013452181355013E202C0E
:1031600001D0092EF5D81E981F99FFF701FDA84B35
:10317000F2009B181A685B68050008920993FFF734
:10318000DFFC02000B001E981F99FFF74AFC089A0B
:10319000099BFFF76AFC06900791FFF70DFD81463A
:1031A000FFF7CAFC02000B0006980799FFF739FCED
:1031B0000022984B06900791FFF7ACFC002800D145
:1031C0000DE101239C46E1444846FFF7B5FC0200AF
:1031D0000B0008980999FFF78DFC002802D0002306
:1031E00099460135002E00D1D9E006954D46B946E5
:1031F00014E006AA944617230A21634428000134E8
:103200001F19FFF7D3F93031397028000A21013E28
:10321000FFF7CCF9092D00D817E10500202CE8D1E3
:103220004F46069D20240CAE06AA172394466344FD
:1032300099465B46B34606930FE04B4628000A21A9
:103240000134E618FFF78AF93031280031700A217D
:10325000FFF784F9051E00D1E4E0202CEDD1069B98
:103260005E469B460323229A1340012B18D1219BD3
:10327000002B15D00B9B002B00D1FDE0219B013BC7
:103280002193202B0CD93023219A07E0172006A97F
:10329000013409180B55944200D3CCE0202CF5D111
:1032A000229B01940393219B0096029322E0229B90
:1032B00052460493219B3900039358461E9B1F9C42
:1032C000029600930194434600F04AF9040020005E
:1032D00015B0F0BCBB46B246A946A046F0BD229B45
:1032E0005B070FD403224C4B229901920391219941
:1032F000009302914346524639005846FFF798FD25
:103300000400E4E70422454BEEE71E9A1F9B0020D1
:103310000021FFF786FB01231E901F910B9311E7FD
:10332000229B54469B0711D1219B042B0ED9219B34
:1033300055469C465E46043C64442A00434601359B
:1033400039002020B047A542F7D1B346344D2600BE
:103350002B1F99465B46A3461C003200E878434683
:103360003900013DA04701364D45F6D123005C46AA
:103370009B46229B04349B07A9D55346219AE31A06
:103380009A42A4D95E461500220043463900202007
:10339000B04753460134E31A9D42F5D897E7280019
:1033A000FFF7CEFB02000B001E981F99FFF739FBB9
:1033B0000022184B06900791FFF796FB0CAE0028F1
:1033C00000D031E7069807990022124BFFF7A2FBC5
:1033D000002800D028E7012301359D4324E700227F
:1033E000069807990B4BFFF77FFB002800D0F9E602
:1033F0004B46002B5CD101239C46E144F2E6C046DB
:10340000FFFFEFFFFFFFEF7F65CDCD4165CDCDC164
:10341000205D00100000E03F245800101C580010F0
:103420002C580010069B5E469B460323229A1340AD
:10343000012B00D181E0202C00D131E70B9B002B28
:1034400027D02D23335501342AE74F46069D202CE3
:1034500000D1E7E63022331907E0172006A901342E
:1034600009180A55202C00D1DCE6A342F5D12E2202
:103470000CAE0134F254D7E60C23229A134257D0F3
:10348000219B013B2193A34200D9FCE6202C00D1D3
:1034900006E7229B5B0703D52B2333550134FFE658
:1034A000229B1B0700D4FBE6202333550134F7E6AB
:1034B000DB0700D496E69EE7229B55469B0711D179
:1034C000219B032B0ED9219B54469C465E46033D0F
:1034D000654422004346013439002020B047AC4205
:1034E000F7D1B346B9465F461C4EEC1C2A00B078B3
:1034F000434649460135B847013EAC42F6D1229BCE
:10350000BB464F469B0700D4E1E65346219AE31A97
:103510009A4200D8DBE65E46150022004346390099
:103520002020B04753460134E31AAB42F5D3CEE630
:10353000219BA34200D9A6E6B2E6219B002B00D135
:1035400079E70B9B002B97D0219B013B21939C4259
:1035500000D298E6202C00D073E7A1E6285800108E
:10356000F0B5DE4657464E464546E0B599B0814631
:103570008B4692469846229A239B10001900FFF72B
:10358000CEFA002800D0CAE0229823990122824B6B
:103590005242FFF7BFFA002800D0C0E022982399DA
:1035A00001227E4B5242FFF79FFA002800D0B6E07E
:1035B0002298239900220023FFF796FA002800D0D2
:1035C000C9E1229B239C08930994089809998023B8
:1035D000269ADB001A400D928022269C120114408C
:1035E00022000B94269C07000E001C4200D0ADE088
:1035F0000B00034300D0D5E0002A00D00AE22200ED
:1036000006332493022313400C930223134200D069
:1036100002E2259B042B00D20FE2043B0B93002314
:1036200004250A930022229823990023FFF75CFACD
:10363000002800D003E25A4B269A134004930B9BB8
:103640000393249B0293089B099C00930194594681
:10365000434652464846FFF72FFD02002020269B96
:103660001F27034059424B415B421840531C0893AB
:10367000594643464530C8470A9AD317D4185C4088
:10368000D30F0A936B1E0B9308AB9C46002567442F
:1036900001E0202D0FD020000A21FEF787FF013521
:1036A0007E193031317020000A21FEF77FFF26009D
:1036B0000400092EEDD8052306930B9B594605936C
:1036C000002304930A3303930A9B4846029310ABEA
:1036D0000093089A43460195FFF700FC0C9B002BD2
:1036E0002DD05346C41A259BA34228D94D465F4688
:1036F00081461E00534639001A19202043460134E2
:10370000A847A642F6D8534648462599C21A013220
:103710000023914200D386E1013018180FE0269B68
:103720000493259B0393249B0293229B239C009349
:1037300001944346524659464846FFF7BDFC19B02E
:10374000F0BCBB46B246A946A046F0BD01432BD112
:103750000B9B2200002B00D154E700230A93249BEB
:103760000A9A0024934200DD85E1229823990022E1
:103770000023FFF7B9F9002800D035E1269B084A5D
:1037800002941A408023DB0013430493259B039388
:10379000089B099CCBE7C046FFFFEF7FFFFFEFFFD1
:1037A000FFF7FFFF06232493B44B70009C46400DA7
:1037B0006044FFF7C5F9B24AB24BFFF756F9B24A77
:1037C000B24BFFF733F93603B14B360B33430400EA
:1037D0000D00380019000022AE4BFFF722F9AE4A67
:1037E000AE4BFFF742F902000B0020002900FFF763
:1037F0001DF9FFF7BDF90A90FFF7A2F9A84AA94BF6
:1038000004000D00FFF731F90022A74BFFF70EF976
:10381000FFF7AEF9A54A0600A54B20002900FFF7E7
:1038200024F9040030000D000C96FFF789F9A14A35
:10383000A14BFFF71AF902000B0020002900FFF747
:10384000F0F802000B0006000F00FFF70EF932003F
:1038500004000D003B0030003900FFF7E7F80022BC
:103860000E900F91954B20002900FFF7E4F80022FD
:10387000934BFFF7DBF802000B0020002900FFF755
:10388000DAF800228F4BFFF7D1F802000B0020007E
:103890002900FFF7D0F80D008021040032003B0022
:1038A0000020C905FFF7BDF802000B002000290029
:1038B000FFF7BCF802000B000E980F99FFF7BBF85A
:1038C0000022734BFFF7B2F87F4B0C9C9C4664447C
:1038D00000222305FFF7C9F806000F0002000B00C5
:1038E00008980999FFF700F900280AD00A9B3000D0
:1038F000013B39000A930022714BFFF79CF8060048
:103900000F000A9A330063323900C62A12D8022205
:103910002698042510400B9A0C90002A25D1259B4F
:10392000042B05D9002800D0A1E0259B043B0B9374
:10393000042541E00222269810400B9A0C90002AA0
:1039400012D1259B052B76D9002872D1259B052500
:10395000053B0B9334E0802212069446229B089389
:10396000239B6344099330E605250B4300D1F6E61B
:1039700008980999554A564BFFF7C4F8002808D013
:10398000089809990022534BFFF7AEF8002800D0A1
:10399000E5E6249B002B1CD00D9B002B19D0249B0B
:1039A000013B2493259BAB4204D90C9B002B5AD09E
:1039B00002230C9300230B930A9B002B00D131E6CA
:1039C0000898099932003B00FFF735F808900991F3
:1039D00028E6259BAB42EDD90C9B002B43D000235E
:1039E0000B9302330C93E7E78020269B3A4A0006AC
:1039F0001A40802384460294089C099D2900DB001C
:103A000013430493259B6144220003930B0000920F
:103A100001938EE60524A8E600230B930A93023354
:103A200004250C93FEE553468C46013B63441B1A68
:103A300072E602230C930525C2E70423EDE58020FE
:103A4000089E099F000639008446269A224B61444D
:103A5000134004930B9B32000393249B02930B00AF
:103A600000920193F3E5259B5B1B0B93A4E70223D4
:103A700004250C93A0E79C1A013C76E601FCFFFFAD
:103A8000FB799F501344D33FB3C8608B288AC63F4D
:103A90000000F03F0000F83F61436F63A787D23F0B
:103AA00071A379094F930A400000E03F1655B5BB5A
:103AB000B16B0240EF39FAFE422EE63F00002C4087
:103AC0000000244000001840FF0300002D431CEBC1
:103AD000E2361A3F80842E41FFF7FFFFF0B5DE4645
:103AE00057464E464546E0B5A5B01E002E9B924671
:103AF0000C93CD4ACD4B80468B461A60002900D1ED
:103B0000EAE1002330789946002800D1ECE1C84B67
:103B10004C460B93C74B454657460E930AE0631C31
:103B2000984622003B005946A84744463078002872
:103B300000D187E001362528F1D108239A46043BBD
:103B40009946023B9846013B00229C460D943078F2
:103B5000711C0300203BDBB2102B03D80B9C9B0095
:103B6000E3589F460300303B89460D9C092B3AD908
:103B7000002398462A2800D1C1E000239A462E2827
:103B80004BD00300683BDBB2122B1ED80E999B0072
:103B9000CB589F4663460E001A43D8E743460E00B3
:103BA0001A43D4E74B460E001A43D0E710230E0009
:103BB0001A43CCE753460E001A43C8E780235B0044
:103BC0001A43FF3B9C467078E1444E4667284FD825
:103BD0002428A4D90300253BDBB2422B9FD8964969
:103BE0009B00CB589F46002394461E0000E0013105
:103BF000B3009B195B001E180878303E0300303B71
:103C0000092BF4D90123624689469C460023B0461D
:103C10009A460E00E1442E28B3D13021802049423B
:103C20008C46C000024370784B46844461460929A3
:103C300000D86CE12A2800D17AE101239C464E4647
:103C4000E1449EE7A146A846BA46CA4503D80123E7
:103C50005B425344994653464A4659460020C04762
:103C6000200025B0F0BCBB46B246A946A046F0BD38
:103C70000300693BDBB20D930F2B00D94FE7012105
:103C800099408C466D49894661464B4619400F91D3
:103C9000634649460B4200D028E10D9B0A2B3AD0DF
:103CA000072B00D03BE70C9B190008C98846002B66
:103CB00000D14BE121200243914614A98C461F22DA
:103CC0000F2162448C4651460D950C91A246150079
:103CD0000F9902E020290CD0130064461C402000FC
:103CE0003730092C00D80738013168541A090F2BD6
:103CF000F0D80C9B54460D9D9A460F9133E10C9BD6
:103D000002CB8846002947DB0C9301239C46707840
:103D10004E46E14431E70C9B02CB14935346002BF3
:103D200000D138E19C4608780B000C908C440028A8
:103D300001D100F098FC89466146944603E05A7828
:103D40000133002A01D08B42F9D1494662465B1A01
:103D50000C900F93530500D520E10223180010406A
:103D60000D90134200D1CBE30D930B1BB1469A4645
:103D70005E460C9822003B003100A84753460134B0
:103D8000185D0028F6D1B3464E460D9B002B00D09F
:103D9000C7E1149B0C93C9E60C9301239C46283879
:103DA00049420243884670784E46E144E5E6707821
:103DB0006C2800D17FE180235B001A43FF3B9C46C7
:103DC000E14402E780239B001A4301239C4670785C
:103DD000E144FAE67078682800D173E180231A4341
:103DE0007F3B9C46E144F0E6672800D103E1472889
:103DF00000D15AE1452800D15AE1049207214246F8
:103E00000C9B0392073352468B43190002920CC954
:103E10002800009201930C9122003B005946FFF7C5
:103E20009FFB040082E6C046DD3A0010780E0020B9
:103E3000805B0010C45B0010105C0010419000001B
:103E4000462800D1DBE00492072142460C9B0392F6
:103E5000073352468B43190002920CC92800009286
:103E600001930C9122003B005946FFF725F904000D
:103E70005CE6631C984622003B0059462520A84773
:103E8000444653E60C9B04330D93631C99469207FA
:103E900000D422E10C9B2200187859463B00A84729
:103EA00043464444012B00D885E23300B8462E0037
:103EB0005F4625004C4699462200434601343900AE
:103EC0002020B047AC42F7D12C00BB463500474616
:103ED0004E460D9B0C9329E6DB4B30789846002329
:103EE0009946002800D012E60024AEE66F2800D1E3
:103EF00088E000D80BE31023782800D1CFE09A4364
:103F00000A239C4600230F930A330D9380E0564604
:103F1000B1008919490001330E181878303E0100AC
:103F200030390929F4D9B2461E000133994628E6F2
:103F30000C9B023602CB8A46C9435046C91708403B
:103F400082460C933078731C99461AE610231000B1
:103F5000984311331843814680201300C00003406A
:103F6000024200D1A9E64B46069308230593534627
:103F7000049310230393002302930F9B22000193C9
:103F80001CAB009359463B002800FEF7A7FF4346B1
:103F900004000C93CAE501235B42C3E60F9B534523
:103FA00001D953460F930223180010400D9013427D
:103FB00000D1B7E10D93D1460B1B9A463300A144C3
:103FC0002E0022004D460C98B9465F469B4608E0FD
:103FD0004B463900541CB0475346185D002877D033
:103FE00022009542F4D15B46BB464F46A9463500B8
:103FF0004C461E00C9E680231B011A43FDE6202320
:104000001A4320E708239C4600230F9308330D939F
:1040100080231100DB0019401A4200D116E10D2364
:104020009A431000802302009B001A401492184209
:1040300000D0C2E1802302005B001A4091460C9A36
:1040400004320F92184200D0B7E2430600D59FE138
:10405000030600D419E30C9B1B880993002B00D0A6
:10406000FCE110339843002900D1F7E10023994681
:1040700043460593534604930D9B069003930023F8
:10408000D2E0582808D0622867D102239C4600233A
:104090000F9302330D93BBE720231A43103B9C463A
:1040A00000230F9310330D93B2E780231B011A43B3
:1040B00020231A43A1E6C0239B001A43F31C994610
:1040C000B07882E5C0231A43F31C9946B0787CE5AA
:1040D00035005E46BB464F4657E64346012B00D8A7
:1040E00063E1631E43449A463300B9462E005F469F
:1040F00055469B46A24622004B46013439002020FB
:10410000B047AC42F7D135005E46BB464F46A146AC
:1041100054460C9B4A46187859463B004444A847ED
:10412000D7E6A1460F9B984500D832E64444E41AEE
:104130003300B8462E005F4625004C4699462200C3
:104140004346013439002020B047AC42F7D12C005F
:10415000BB46350047464E461BE680231000DB0079
:1041600018401A4200D10FE1112118008A430D9224
:104170000D9A802311009B0019408C461A4269D188
:10418000802311005B00194089460C9904310F917E
:104190001A4200D0CAE113005B0600D5F0E013001C
:1041A0001B0600D459E20C9B00229B5ED9175A18BB
:1041B0004A4092B2D90F0C91002B00D1F9E11000C6
:1041C00014AA944642461F23149252466344A846BA
:1041D00016944D460400B946B2461F00159201E000
:1041E000202D0FD020000A21FEF7E0F901357E19BD
:1041F0003031317020000A21FEF7D8F92600040082
:10420000092EEDD8149B4F46A94645469846159B66
:1042100056469A46169C0D9B069343460593534675
:1042200004930A2303930C9B02934B4601931CAB0C
:104230002200009359463B002800FEF74FFE0F9BDB
:1042400004000C9372E4C0462D2E00100C239A43F8
:104250001000E7E607220C9B073393430132944694
:104260009C4462460C920CCBD90F0F91110019435C
:1042700000D191E0D91713911291514010911399E7
:104280005940119110981199129A139B801A9941D3
:104290001090119114AA0023944642469946149214
:1042A00052461F336344A846B24616944E46109CAD
:1042B000119DB94615921F0001E0202E10D020005C
:1042C00029000A220023FEF7AFF9013630322B0015
:1042D000BA550D0022000400002BEED1092AECD8BB
:1042E000149B1094119545469846159B4F46B14630
:1042F00056469A46169C0D9B069343460593534695
:1043000004930A2303930F9B02934B4601931CAB28
:104310002200009359463B002800FEF7DFFD040011
:10432000FFF704FC0F9B984500D8C1E18023DB0018
:104330000D9343460F9A1B199B1A994633002E0082
:104340004D46B9465F469B460C9122004B460134D0
:1043500039002020B047AC42F7D143460C990133D5
:104360000F930B7835000C935E46BB464F46002BEF
:1043700000D10EE50D9B002B00D1F6E4002319E6D9
:104380000C9B1B781A0015E710239A430D92EFE659
:104390000C9B1B78099361E6002399460028AAD15B
:1043A000002200231092119374E70C9B22001878CE
:1043B00059463B00A8474C468BE50C9AFA3BFF3B1D
:1043C00007329A430133994691444B460C93136844
:1043D000526815921A4306D1103290430022099276
:1043E000002900D081E06122810600D54122D2B2AD
:1043F0000A9214AA91460A9A00210A3A1492424655
:104400001792524618925A460991B3461F311E0020
:104410000F9B4944BA4619941A950024674698465A
:104420008946159D16901B920AE03032D2B24B4657
:1044300001341A55A8454AD0202C4AD006000D0058
:104440003A00002330002900FEF7EEF8D2B2092A24
:10445000EBD9149B9C466244D2B2E8E76123820602
:1044600000D54123DBB20A3B0C93434614A91F221B
:104470008C46159353466244A046B2464C46179765
:10448000A9461700099D0D9E1490169308E030333D
:10449000DBB201343B55B5420ED3202C0CD00500C5
:1044A00031002800FEF782F8CBB20929EFD90C9A27
:1044B00094466344DBB2ECE7159B4D46A146444667
:1044C0009846169B564614989A46179FD0E5B742D1
:1044D000B2D9179B57469846189B5E469A461B9B37
:1044E00009949B461698199C1A9D4346059353467A
:1044F00004930D9B0690039300230293099B05E709
:104500000F9B984500D914E701330F932DE4102336
:10451000110099430D91692800D0BAE08023100062
:10452000DB0018401A4200D122E61DE60C9B1B68F6
:10453000DA0F1100002B00D18CE0DA1798185040E8
:1045400014AA914642461F23149252464B44A04659
:10455000A946169704006546B2461F000C911592B5
:1045600001E0202D0FD020000A21FEF71FF80135B1
:104570007E193031317020000A21FEF717F826002D
:104580000400092EEDD8149B444698460C9BAC467B
:104590001900159B56464D469A46169F0D9B029153
:1045A000069343460593534604930A2303936346B5
:1045B0003CE6002800D02EE602E60C9B1B689946DC
:1045C000002B03D110339843002938D16123820690
:1045D00000D54123DBB20A3B0C9343461693534666
:1045E00014A91F228C4617932B006244A0464D4607
:1045F000B246189799461700149C0D9E159008E036
:104600003033DBB201343B55B5420ED3202C0CD0F5
:10461000050031002800FDF7C9FFCBB20929EFD909
:104620000C9A94466344DBB2ECE7169B1494444620
:104630009846179B56464D469A461598189F4346EE
:104640000593534604930D9B069003930023029316
:10465000149BEBE50028A1D172E70C9B1B68D917CE
:104660005A184A40A6E580231000DB0018409C46FB
:104670000F901A420FD00220030013400F931042F4
:1046800019D00023A1460F934CE50C9B1B6809939E
:10469000E4E40A0034E40223180010400D901342B1
:1046A00000D03EE54346002B00D042E6FFF771FB09
:1046B00001330F937FE463460D93F3E70EB40122B9
:1046C00030B584B007AC08CC064D0100009428003A
:1046D00052420394FFF702FA04B030BC08BC03B0A6
:1046E0001847C046252E001010B5094A030014686B
:1046F00084B0002C08D0012200910648524203A940
:10470000A047012004B010BD00F064F90020F9E7D3
:10471000780E0020A930001000BEFDE7094A030012
:104720001068002805D00849C3188B4207D81360C9
:10473000704706480449C31810608B42F7D901201E
:104740004042F5E7740E002000000420C00F002056
:1047500010B5FFF7E1FFC04670B5FDF727FE074D26
:10476000074EB54209D20024013E761BB60808CD9B
:10477000984723000134B342F9D170BD445700106B
:104780004C570010030010B5080011001B68984733
:1047900010BDC046F0B5C64600B5437D07000C000D
:1047A0001600002B46D0002A17DD0B780A2B24D0E8
:1047B00000239846012E13D001252900635C0135A2
:1047C0000A2B26D0B542F8D1464509DCA419013C94
:1047D00023780D3B5A4253413B7580BCB846F0BD2F
:1047E0004346E018A419F11A013C3B689847237826
:1047F0000D3B5A4253413B75EFE7037D002BD7D168
:1048000002210F483B689847012EDFD001239846CC
:10481000D2E7631E5B5C0D2BD4D0884504DA434697
:10482000C91AE0183B689847022105483B68A8462A
:104830009847C7E70368110020009847CDE7C046B6
:10484000705D0010F0B54546DE464E465746E0B571
:1048500083B091461C0080460D00FDF7E3FB00236A
:10486000304A12184B41002B02DA01222E4B5242E1
:104870002E4908008A4600F03FFF07006B1C03D159
:10488000404600F095FD0500002C27D0284E294B0E
:104890001C68002C18D04B46002B21D1264B994682
:1048A00002E02469002C0FD02368002BF9D04B467E
:1048B0001B68002B01D09C42F3D120002A00414606
:1048C000B0472469002CEFD1002F26D1280003B077
:1048D000F0BCBB46B246A946A046F0BD174ED6E78F
:1048E000154B99460A239B4602E02469002CEBD025
:1048F0002368002BF9D04B461B68002B01D0A34244
:10490000F3D12A0041462000B0476B465A462000AA
:10491000DA71D91D0122B047E7E7504600F0D4FE16
:10492000D4E7C04640420F00FFFFFF7F3809002058
:1049300095470010680E0020700E0020854700107B
:10494000F0B5CE46474680B583B06B460600DD1D08
:104950002870FDF767FB0023194A12184B41002B02
:1049600002DA0122174B524217490800884600F02C
:10497000C3FE164B81461C68002C14D0144F02E075
:104980002469002C0FD02368002BF9D03B68002B42
:1049900001D09C42F4D1200001222900FFF7FAFE49
:1049A0002469002CEFD14B46002B05D1300003B019
:1049B000C0BCB946B046F0BD404600F085FEF5E704
:1049C00040420F00FFFFFF7F38090020680E0020E3
:1049D000700E002070B5040000F0EAFC0123010015
:1049E000050001222000FFF72DFF084B1C68002C5A
:1049F00006D06368002B05D098472469002CF8D1B5
:104A0000280070BD2469002CF3D1F9E7680E00205E
:104A100010B5024800F004F810BDC046AC0E0020EE
:104A200010B588B004000D2200216846FEF7EEF9AB
:104A30000D22002104A8FEF7E9F94B236A466846D7
:104A4000137004A90D2200F037FE15210822200062
:104A50006944FEF7E1F908B010BDC046F0B5DE4686
:104A600057464E46454690460022E0B585B01E00AA
:104A70000EAB1B7807009B460368DA66013259606B
:104A8000DA66002E60DD02795946920292460122D2
:104A90004A4052029446802291465A46802403920C
:104AA0006246BB46002010214746B446751EA4004E
:104AB0000192421B160072427241019E5242164000
:104AC00002963E5CB0465646424616433200029E6F
:104AD00016431E61019E5A6B1142FCD04A469A58F9
:104AE00001969246002A0AD1A84228D0002201301D
:104AF00092468445DDD1039B5F469B4616E05A6D86
:104B0000012290465A6B2242FCD01A6E4246019610
:104B1000002AEBD0039B5F469B465346002B15D0E3
:104B20005346DB0712D453461B070FD55B463B7138
:104B300005B0F0BCBB46B246A946A046F0BD039AFC
:104B4000002AD3D19046DDE70020EFE70120404264
:104B5000ECE7C046F8B5DE4657464E464546834626
:104B6000E0B505200C00FDF765FB0600600821009C
:104B70008019FDF71BFD430098468044070005217E
:104B80004046FDF713FD3B1A9A461E4B81467000C6
:104B900080199C4231D81C49FDF708FD451C5B4635
:104BA0001C680023E366226804335A400233134032
:104BB00080225201A21813605346E3614B462362E0
:104BC000434601204F2B03D950214046FDF7EEFC10
:104BD000A023E050E36F39005D400C4B2D042D0CF9
:104BE000E3181D6001233000E366FDF7DFFCF0BC35
:104BF000BB46B246A946A046F8BD0549FDF7D6FC1E
:104C0000451CCCE73F420F00809698007C100000C6
:104C100040787D010F4A70B5821A531E9A410E4B9F
:104C2000D20008321A600D4B0D4C1A601500236833
:104C30009D432B1EFAD166240268FF340571D566A8
:104C40001460633C8833FF3CD5639563D450FFF711
:104C500081FF70BDD803002000E0004000F000405C
:104C600008C0004010B582B06C46247C0094FFF769
:104C7000F5FE02B010BDC04601230121084A1360B1
:104C8000084A1360084A080013689843FBD1074A92
:104C900011608021490013680B42FCD07047C04668
:104CA00000E0004000F0004008C0004000C00440A8
:104CB000030010B50A0003490868190000F004F861
:104CC00010BDC046F007002070B50B0C0024150C79
:104CD000002B28D1002D3CD18BB291B2594300F06A
:104CE00047F8051E33D00300083B5A6803239A4354
:104CF000043A242A12D80300132A0AD90460446013
:104D000008331B2A05D98460C460242A2AD00300F2
:104D1000103300221A605A609A6002E00021FEF708
:104D200075F8280070BD002D16D1151C89B292B2FD
:104D30004A43ADB29BB26B43110C5B18190C0BD1FB
:104D4000190492B2114300F013F8051ECBD10025CF
:104D5000E7E72B1C0D1CE9E700F012FB0C230025F4
:104D60000360DEE70300046118334461D1E7C04605
:104D7000F0B54E464546DE465746E0B50D000B35CC
:104D8000060085B0162D21D8102900D9D4E000F0F6
:104D9000D5FA102518230221CA4FFB181A005C68A7
:104DA000083A944200D186E103226368A1689343E4
:104DB000E268CA6091600121E3185A6830000A4332
:104DC0005A6000F0C3FA20000830B8E007239D4382
:104DD00000D5B1E0A94200D9AEE000F0AFFAFC2363
:104DE0005B009D4200D2E0E1690A00D1AEE00429F7
:104DF00000D9A1E138239846A90988443931CB006C
:104E0000082252429446AF4FFB189C446346DC682C
:104E1000A44514D0032399460B0061469C4607E045
:104E2000E068002A00DB40E1814200D141E104005A
:104E30004A46636893435A1B0F2AF1DD41463A0004
:104E40003C690832944200D11EE103206368834329
:104E5000581B0F2800DDACE13A617A610028AADA1C
:104E60007A68904680229200934200D336E1DA08B5
:104E7000580901238340404618438046D300DB197C
:104E80009A687860E360A2609C60D46001208B1017
:104E90009840404562D8434603420AD103239943D0
:104EA000434640000431034203D140000431034231
:104EB000FBD00323B3469C460E00B8460190F00099
:104EC00040440100B246CB680BE064465A681F00BC
:104ED000A243DB68541B0F2C00DD39E1002C00DB02
:104EE00053E19942F1D101239946CA44534608310E
:104EF0009B07E8D1032205E003680838013E83429E
:104F000000D013E23242F7D14346019A5B689343E3
:104F100042465360019A520001929A421CD8002ADC
:104F200006D119E004229146019ACA445200019226
:104F30001342F7D05646C2E70C233360002005B079
:104F4000F0BCBB46B246A946A046F0BD80233F2236
:104F5000402190469B0053E75E4647460322BC68CB
:104F6000636893439846AB4203D35B1B0F2B00DD72
:104F70008DE0230043440293534B08201B681033F9
:104F80005B19019300F006FA504903900B688A46BA
:104F9000013306D08446019B4242013B63441340E7
:104FA00001933000019900F0D9F9030081460133E3
:104FB00000D11CE1029B834200D916E1444B0298C8
:104FC0009B461A68019B59469C4662440A600399B5
:104FD0000139484500D157E153461B68013300D1E0
:104FE0005EE14B4602981B1A9B185A461360072332
:104FF0004A4648461A400292184200D115E10398E9
:10500000013384469B1A019A99444A4401926344AD
:105010000A409B1A194030008A4600F09FF9431C51
:1050200000D158E14B46C01A0300534401935B463C
:105030001A68012052441A604B464946BB60019BE6
:1050400003434B60BC4213D043460F2B00D82BE1E7
:1050500007210C3B8B4361680140052019436160C7
:10506000E118486088600F2B00D93FE14B465B6830
:1050700018490868904200D20A60174908689042AF
:1050800000D20A604C46B4E07B689846FEE60122F6
:10509000290013431143651961603000BD606B60E6
:1050A00000F054F92000083049E7A268D06082601F
:1050B00081E66146C3E6DC680231A34200D1BEE668
:1050C00072E6C046E8030020F80B0020E003002051
:1050D000C80B0020F00B0020F40B00205A0A042A11
:1050E0007CD9142A00D9B0E010005B3082465C32D3
:1050F000D200082040428446BA189444624692681E
:105100000B308146944500D186E00800A2466146F6
:10511000844602E09268914204D04C465068A04315
:105120009842F7D8D368614654469C466346A260CD
:10513000E3609C60D460A9E6142967D9542900D99A
:105140008CE06E239846290B88446F31CB0057E6DC
:10515000BA460120514684464919054350464560E8
:10516000856847466046EB605E469D605346396100
:105170007961204308374860CF6030008F609C50D1
:1051800000F0E4F850460830D9E6BA4601205E4601
:105190005244516801435160BA683000D3609A604C
:1051A00000F0D4F838000830C9E62B00E9080833CD
:1051B000F2E56119884601218C460D434146656040
:1051C00039617961CA608A60624602434A60E05090
:1051D000300000F0BBF820000830B0E69A0910005B
:1051E000393238308246D20083E7BC4241D0BC68B5
:1051F0006368032293431A005B1BAA4202D30F2B5E
:1052000000DD44E7300000F0A1F897E65B23984604
:1052100088445C31CB00F3E553469810012383406A
:10522000404618438046786080E7019B039A4B44D0
:105230000B40D31A194030008A4600F08FF8431C07
:1052400000D0EFE600239A46F1E6542A2ED81A0B36
:1052500010006F326E308246D2004AE7AA235B000C
:1052600099422ED8DD3B9846E90B88447831CB0033
:10527000C6E5304B9B461A68019B9C465B466244E0
:105280001A60039B591EA7E64846084200D0A3E6D1
:10529000B9684344894601210B4349464B60E7E620
:1052A00053464A461A60A2E64860ABE7AA2040008F
:1052B000824226D8DA0B1000783277308246D2004C
:1052C00017E71D4B994226D87C239846A90C8844A1
:1052D0007D31CB0094E5019A029B94464A46083BF7
:1052E00063449B1A019300239A46A0E621003000F4
:1052F000083100F0E5F85B461A68BB6899465B68C0
:10530000B6E60D4882420CD89A0C10007D327C30F3
:105310008246D200EDE6FE237E227F2190469B004E
:105320006EE5FE227E2092008246E2E643465B68FE
:10533000F0E5C046C80B00205405000010B5024837
:1053400000F024F810BDC046C40B002010B5024880
:1053500000F01EF810BDC046C40B0020002370B53D
:10536000064C050008002360FFF7D8F9431C00D065
:1053700070BD2368002BFBD02B60F9E76C0E00207A
:10538000014B18687047C046F00700207047C046C0
:105390007047C046802310B55B01082801D1180072
:1053A00010BDFFF7EDFF16230360173BF7E7C0467C
:1053B00010B583070AD00300032102E001330B423A
:1053C00005D01A78002AF9D1181A10BD03001968FF
:1053D0000C4A0D4C8A188A4322420FD15968094A57
:1053E00004338A188A43224208D15968054A043393
:1053F0008A188A432242F1D000E001331A78002A49
:10540000FBD1E1E7FFFEFEFE80808080F0B5C6465E
:10541000060000B508200D00FFF7BCFF04003000B7
:10542000FFF78CFF234B210098469B685F6803239E
:105430009F4338001138401B0019FDF7B7F8451E8F
:105440006543AC4208DC00213000FFF787FF43468C
:105450009B68DB19984206D03000FFF777FF0020E9
:1054600080BCB846F0BD30006942FFF777FF0130DD
:105470000ED0012243467F1B9B6817430E4A5F6094
:10548000136830005B1B1360FFF760FF0120E7E744
:1054900000213000FFF762FF43469A68831A0F2B02
:1054A000DADD064C04492468001B086001210B4327
:1054B0005360D1E7E8030020C80B0020E003002080
:1054C000F0B5D6464F46464605000C00C0B500294B
:1054D00048D0FFF733FF2100012708394B6803202C
:1054E0009C46BB43CE187268824360463840804673
:1054F0006A4891468468B44200D17CE07260B41876
:1055000064683C40A2464446002C30D10C68A44656
:10551000091B8C686344A4460824A0468044C44503
:105520005CD0CC68A04664464246E2609460524635
:10553000002A1FD01F434F603360802292009342A5
:1055400030D2DA085C090123A34044682343436056
:10555000D3001B189A68CB608A609960D1602800DC
:10556000FFF7F4FEE0BCBA46B146A846F0BD52468D
:10557000002A0FD101224B44CF18BC46B468484FD3
:105580001A43BC425BD0F668E660B4604A6062468B
:105590001360D2E762463A434A6080223360920049
:1055A0009342CED35C0A042C3FD89C0926003934A0
:1055B0003836E40004192268083C0327944203D1DA
:1055C0004EE09268944203D05068B8439842F8D8AD
:1055D000D468CC608A60A160D160C0E75246002ADE
:1055E00035D14B441A00B068F3681743C360986024
:1055F0004F608A50B3E74B441A004346002B06D154
:105600000B68C91A8C68D218CB68E3609C600123D0
:1056100013434B60234B81601B6893429FD8224BFE
:1056200028001968FFF7F2FE99E7142C13D9542CBF
:105630001DD81C0B26006F346E36E400BAE7E1601B
:10564000A1604A606246CC608C60136087E71F43AC
:105650004F60336083E726005C345B36E400A9E7E3
:105660000123B610B340466833434360B1E7AA2232
:105670005200944205D8DC0B260078347736E400DB
:1056800098E70A4A944205D89C0C26007D347C3663
:10569000E4008FE7FE247E26A4008BE7E8030020C9
:1056A000F0030020E4030020F80B00205405000064
:1056B000F8B5C0460000000001B40248844601BCB1
:1056C000604700BFF501002001B40248844601BCD8
:1056D000604700BF5901002001B40248844601BC64
:1056E000604700BF2503002001B40248844601BC86
:1056F000604700BF2503002001B40248844601BC76
:10570000604700BFC1000020D52300100124001015
:105710004D250010FD2D0010D52B0010792D001007
:10572000752400101D2400103D2400105124001089
:105730007918001059240010F91B00109D23001047
:0C57400051130010B1020010114A0010BB
:1057500025312E30660000004144430052657369D4
:105760007374656E2E0000000A2A2A2A2050414ECA
:105770004943202A2A2A0A000A000000486172646C
:105780007761726520616C61726D20256420616CA7
:10579000726561647920636C61696D656400000005
:1057A0004861726420617373657274006D6973730C
:1057B000696E6720646F75626C652066756E6374D0
:1057C000696F6E004F7574206F66206D656D6F7226
:1057D0007900000052656C6561736500626F6F74DB
:1057E000325F77323571303830000000322E312E82
:1057F000310000007069636F5F7700005465737457
:10580000655F566F6C74696D6574726F000000009F
:10581000417072203234203230323500666E692B8E
:1058200000000000666E69006E616E00666E692D94
:105830000000000000000000000000000000005F09
:105840005F0000000007070007070000147F7F14B7
:105850007F7F1400242E2A6B6B3A120046663018A4
:105860000C666200307A4F5D377A48000004070307
:105870000000000000001C3E634100000000416386
:105880003E1C0000082A3E1C1C3E2A080008083E58
:105890003E080800000080E06000000000080808E2
:1058A0000808080000000060600000006030180C6C
:1058B000060301003E7F594D477F3E000040427F76
:1058C0007F404000727B4949494F46004141494968
:1058D000497F36001E1E10107F7F10002767454548
:1058E000457D39003E7F49494979300001016171A8
:1058F000190F0700367F4949497F3600064F49494D
:10590000497F3E000000006666000000000080E65F
:105910006600000000081C366341000000141414E7
:105920001414140000004163361C080000020359DF
:105930005D0702003E7F415D5D5F5E007C7E13116E
:10594000137E7C007F7F4949497F36003E7F41417D
:10595000416322007F7F4141633E1C007F7F4949B4
:10596000494141007F7F0909090101003E7F414112
:10597000517332007F7F0808087F7F000041417F1C
:105980007F41410020604040407F3F007F7F081CF6
:10599000366341007F7F4040404040007F7F0E1CC7
:1059A0000E7F7F007F7F060C187F7F003E7F414186
:1059B000417F3E007F7F0909090F06003E7F41714C
:1059C00061FFBE007F7F0919396F4600266F494984
:1059D000497B32000101017F7F0101017F7F40404F
:1059E000407F7F001F3F6060603F1F003F7F60304F
:1059F000607F3F0063771C081C776300474F68385F
:105A0000180F0700416171594D47430000007F7F27
:105A1000414100000103060C1830600000004141C4
:105A20007F7F0000080C0603060C08008080808041
:105A3000808080800000000307040000207454541C
:105A4000547C78007F7F484848783000387C444454
:105A5000446C280030784848487F7F00387C545494
:105A6000545C180000487E7F4903020098BCA4A43F
:105A7000A4FC7C007F7F0404047C78000000447D4B
:105A80007D40000040C0808080FD7D007F7F101839
:105A90003C6440000000417F7F4000007C7C18781F
:105AA0001C7C78007C7C0404047C7800387C4444B2
:105AB000447C3800FCFC2424243C1800183C24249A
:105AC00024FCFC007C7C0404040C0800485C545456
:105AD000547424000004043F7F4444003C7C404054
